{
  "contractName": "EssenceTokenSafe",
  "abi": [
    {
      "constant": false,
      "inputs": [
        {
          "name": "_id",
          "type": "uint8"
        },
        {
          "name": "_account",
          "type": "address"
        }
      ],
      "name": "release",
      "outputs": [],
      "payable": false,
      "stateMutability": "nonpayable",
      "type": "function"
    },
    {
      "constant": true,
      "inputs": [
        {
          "name": "",
          "type": "uint8"
        }
      ],
      "name": "groups",
      "outputs": [
        {
          "name": "releaseTimestamp",
          "type": "uint256"
        },
        {
          "name": "remaining",
          "type": "uint256"
        }
      ],
      "payable": false,
      "stateMutability": "view",
      "type": "function"
    },
    {
      "inputs": [
        {
          "name": "_token",
          "type": "address"
        }
      ],
      "payable": false,
      "stateMutability": "nonpayable",
      "type": "constructor"
    }
  ],
  "bytecode": "0x608060405234801561001057600080fd5b50604051602080610427833981016040525160008054600160a060020a031916600160a060020a0383161790556100556001635e0c27506401000000006100db810204565b610089600173c36cdfeb909f9aa993fa553e4f880623c1583bd26a129c8f71ad02e2a6800000640100000000610100810204565b6100a16002635c78bc506401000000006100db810204565b6100d5600273992f21bee809f1ee7e67c0225185b29b04485b2e6a129c8f71ad02e2a6800000640100000000610100810204565b5061019b565b60008082116100e957600080fd5b5060ff909116600090815260016020526040902055565b60ff83166000908152600160209081526040808320600160a060020a03861684526002810190925290912054610143908364010000000061023b61018582021704565b600160a060020a0384166000908152600283016020526040902055600181015461017a908364010000000061023b61018582021704565b600190910155505050565b60008282018381101561019457fe5b9392505050565b61027d806101aa6000396000f30060806040526004361061004b5763ffffffff7c0100000000000000000000000000000000000000000000000000000000600035041663587fae938114610050578063e6587a8614610086575b600080fd5b34801561005c57600080fd5b5061008460ff6004351673ffffffffffffffffffffffffffffffffffffffff602435166100ba565b005b34801561009257600080fd5b506100a160ff60043516610210565b6040805192835260208301919091528051918290030190f35b60ff8216600090815260016020526040812080549091904210156100dd57600080fd5b5073ffffffffffffffffffffffffffffffffffffffff8216600090815260028201602052604081205490811161011257600080fd5b73ffffffffffffffffffffffffffffffffffffffff83166000908152600283016020526040812055600182015461014f908263ffffffff61022916565b600183015560008054604080517fa9059cbb00000000000000000000000000000000000000000000000000000000815273ffffffffffffffffffffffffffffffffffffffff8781166004830152602482018690529151919092169263a9059cbb92604480820193602093909283900390910190829087803b1580156101d357600080fd5b505af11580156101e7573d6000803e3d6000fd5b505050506040513d60208110156101fd57600080fd5b5051151561020a57600080fd5b50505050565b6001602081905260009182526040909120805491015482565b60008282111561023557fe5b50900390565b60008282018381101561024a57fe5b93925050505600a165627a7a72305820e41341a3ec639969c6120c1c679f999d0211bcb7b0bec269c5267948e4013c1f0029",
  "source": "pragma solidity ^0.4.21;\n\nimport \"./component/TokenSafe.sol\";\nimport \"./token/MintableToken.sol\";\nimport \"./token/BurnableToken.sol\";\nimport \"./fundraiser/MintableTokenFundraiser.sol\";\nimport \"./fundraiser/IndividualCapsFundraiser.sol\";\nimport \"./fundraiser/GasPriceLimitFundraiser.sol\";\nimport \"./fundraiser/CappedFundraiser.sol\";\nimport \"./fundraiser/RefundableFundraiser.sol\";\nimport \"./fundraiser/PresaleFundraiser.sol\";\nimport \"./fundraiser/TieredFundraiser.sol\";\n\n\n/**\n * @title EssenceToken\n */\n\ncontract EssenceToken is MintableToken, BurnableToken {\n    constructor(address _minter)\n        StandardToken(\n            \"Essence Token\",   // Token name\n            \"XES\", // Token symbol\n            18  // Token decimals\n        )\n        \n        MintableToken(_minter)\n        public\n    {\n    }\n}\n\n\n\n/**\n * @title EssenceTokenSafe\n */\n\ncontract EssenceTokenSafe is TokenSafe {\n  constructor(address _token)\n    TokenSafe(_token)\n    public\n  {\n    \n    // Group \"Core Team \"\n    init(\n      1, // Group Id\n      1577854800 // Release date = 2020-01-01 05:00 UTC\n    );\n    add(\n      1, // Group Id\n      0xc36CDfEB909f9AA993Fa553e4f880623C1583bD2,  // Token Safe Entry Address\n      22500000000000000000000000  // Allocated tokens\n    );\n    \n    // Group \"The Essence Foundation \"\n    init(\n      2, // Group Id\n      1551416400 // Release date = 2019-03-01 05:00 UTC\n    );\n    add(\n      2, // Group Id\n      0x992f21Bee809F1eE7e67C0225185B29B04485b2e,  // Token Safe Entry Address\n      22500000000000000000000000  // Allocated tokens\n    );\n  }\n}\n\n\n\n/**\n * @title EssenceTokenFundraiser\n */\n\ncontract EssenceTokenFundraiser is MintableTokenFundraiser, PresaleFundraiser, IndividualCapsFundraiser, CappedFundraiser, RefundableFundraiser, TieredFundraiser, GasPriceLimitFundraiser {\n    EssenceTokenSafe public tokenSafe;\n\n    constructor()\n        HasOwner(msg.sender)\n        public\n    {\n        token = new EssenceToken(\n        \n        address(this)  // The fundraiser is the minter\n        );\n\n        tokenSafe = new EssenceTokenSafe(token);\n        MintableToken(token).mint(address(tokenSafe), 45000000000000000000000000);\n\n        initializeBasicFundraiser(\n            1547614800, // Start date = 2019-01-16 05:00 UTC\n            1551329940,  // End date = 2019-02-28 04:59 UTC\n            3000, // Conversion rate = 3000 XES per 1 ether\n            0xB9f32508a8476640458ab2960f9BDc3E556fED53     // Beneficiary\n        );\n\n        initializeIndividualCapsFundraiser(\n            (0.25 ether), // Minimum contribution\n            (0 ether)  // Maximum individual cap\n        );\n\n        initializeGasPriceLimitFundraiser(\n            0 // Gas price limit in wei\n        );\n\n        initializePresaleFundraiser(\n            7500000000000000000000000,\n            1546318800, // Start = 2019-01-01 05:00 UTC\n            1547528340,   // End = 2019-01-15 04:59 UTC\n            6000\n        );\n\n        initializeCappedFundraiser(\n            (35000 ether) // Hard cap\n        );\n\n        initializeRefundableFundraiser(\n            (3500 ether)  // Soft cap\n        );\n\n        \n    }\n    \n    /**\n      * @dev Define conversion rates based on the tier start and end date\n      */\n    function getConversionRate() public view returns (uint256) {\n        uint256 rate = super.getConversionRate();\n        if (now >= 1547614800 && now < 1548219540)\n            return rate.mul(150).div(100);\n        \n        if (now >= 1548306000 && now < 1549515540)\n            return rate.mul(130).div(100);\n        \n\n        return rate;\n    }\n\n    /**\n      * @dev Disable minting upon finalization\n      */\n    function finalization() internal {\n        super.finalization();\n        MintableToken(token).disableMinting();\n    }\n}\n\n",
  "sourcePath": "/tmp/tg-build-DFPcbO/contracts/Fundraiser.sol",
  "compiler": {
    "name": "solc",
    "version": "0.4.24+commit.e67f0147.Emscripten.clang"
  },
  "schemaVersion": "2.0.1",
  "updatedAt": "2018-12-13T06:56:18.537Z"
}