{
  "contractName": "EssenceTokenFundraiser",
  "abi": [
    {
      "constant": true,
      "inputs": [],
      "name": "presaleMaxSupply",
      "outputs": [
        {
          "name": "",
          "type": "uint256"
        }
      ],
      "payable": false,
      "stateMutability": "view",
      "type": "function"
    },
    {
      "constant": false,
      "inputs": [
        {
          "name": "_beneficiary",
          "type": "address"
        }
      ],
      "name": "setBeneficiary",
      "outputs": [],
      "payable": false,
      "stateMutability": "nonpayable",
      "type": "function"
    },
    {
      "constant": true,
      "inputs": [],
      "name": "tokenSafe",
      "outputs": [
        {
          "name": "",
          "type": "address"
        }
      ],
      "payable": false,
      "stateMutability": "view",
      "type": "function"
    },
    {
      "constant": true,
      "inputs": [],
      "name": "individualMaxCapTokens",
      "outputs": [
        {
          "name": "",
          "type": "uint256"
        }
      ],
      "payable": false,
      "stateMutability": "view",
      "type": "function"
    },
    {
      "constant": true,
      "inputs": [],
      "name": "presaleEndTime",
      "outputs": [
        {
          "name": "",
          "type": "uint256"
        }
      ],
      "payable": false,
      "stateMutability": "view",
      "type": "function"
    },
    {
      "constant": true,
      "inputs": [],
      "name": "softCapReached",
      "outputs": [
        {
          "name": "",
          "type": "bool"
        }
      ],
      "payable": false,
      "stateMutability": "view",
      "type": "function"
    },
    {
      "constant": true,
      "inputs": [],
      "name": "endTime",
      "outputs": [
        {
          "name": "",
          "type": "uint256"
        }
      ],
      "payable": false,
      "stateMutability": "view",
      "type": "function"
    },
    {
      "constant": true,
      "inputs": [],
      "name": "beneficiary",
      "outputs": [
        {
          "name": "",
          "type": "address"
        }
      ],
      "payable": false,
      "stateMutability": "view",
      "type": "function"
    },
    {
      "constant": false,
      "inputs": [],
      "name": "finalize",
      "outputs": [],
      "payable": false,
      "stateMutability": "nonpayable",
      "type": "function"
    },
    {
      "constant": true,
      "inputs": [],
      "name": "presaleConversionRate",
      "outputs": [
        {
          "name": "",
          "type": "uint256"
        }
      ],
      "payable": false,
      "stateMutability": "view",
      "type": "function"
    },
    {
      "constant": false,
      "inputs": [
        {
          "name": "_individualMaxCap",
          "type": "uint256"
        }
      ],
      "name": "setIndividualMaxCap",
      "outputs": [],
      "payable": false,
      "stateMutability": "nonpayable",
      "type": "function"
    },
    {
      "constant": false,
      "inputs": [
        {
          "name": "_gasPriceLimit",
          "type": "uint256"
        }
      ],
      "name": "changeGasPriceLimit",
      "outputs": [],
      "payable": false,
      "stateMutability": "nonpayable",
      "type": "function"
    },
    {
      "constant": true,
      "inputs": [],
      "name": "startTime",
      "outputs": [
        {
          "name": "",
          "type": "uint256"
        }
      ],
      "payable": false,
      "stateMutability": "view",
      "type": "function"
    },
    {
      "constant": false,
      "inputs": [],
      "name": "acceptOwnership",
      "outputs": [],
      "payable": false,
      "stateMutability": "nonpayable",
      "type": "function"
    },
    {
      "constant": true,
      "inputs": [],
      "name": "conversionRate",
      "outputs": [
        {
          "name": "",
          "type": "uint256"
        }
      ],
      "payable": false,
      "stateMutability": "view",
      "type": "function"
    },
    {
      "constant": true,
      "inputs": [],
      "name": "isFinalized",
      "outputs": [
        {
          "name": "",
          "type": "bool"
        }
      ],
      "payable": false,
      "stateMutability": "view",
      "type": "function"
    },
    {
      "constant": true,
      "inputs": [],
      "name": "owner",
      "outputs": [
        {
          "name": "",
          "type": "address"
        }
      ],
      "payable": false,
      "stateMutability": "view",
      "type": "function"
    },
    {
      "constant": true,
      "inputs": [],
      "name": "softCap",
      "outputs": [
        {
          "name": "",
          "type": "uint256"
        }
      ],
      "payable": false,
      "stateMutability": "view",
      "type": "function"
    },
    {
      "constant": true,
      "inputs": [],
      "name": "gasPriceLimit",
      "outputs": [
        {
          "name": "",
          "type": "uint256"
        }
      ],
      "payable": false,
      "stateMutability": "view",
      "type": "function"
    },
    {
      "constant": true,
      "inputs": [],
      "name": "presaleStartTime",
      "outputs": [
        {
          "name": "",
          "type": "uint256"
        }
      ],
      "payable": false,
      "stateMutability": "view",
      "type": "function"
    },
    {
      "constant": false,
      "inputs": [],
      "name": "getRefund",
      "outputs": [],
      "payable": false,
      "stateMutability": "nonpayable",
      "type": "function"
    },
    {
      "constant": true,
      "inputs": [],
      "name": "presaleSupply",
      "outputs": [
        {
          "name": "",
          "type": "uint256"
        }
      ],
      "payable": false,
      "stateMutability": "view",
      "type": "function"
    },
    {
      "constant": true,
      "inputs": [],
      "name": "getConversionRateFactor",
      "outputs": [
        {
          "name": "",
          "type": "uint256"
        }
      ],
      "payable": false,
      "stateMutability": "pure",
      "type": "function"
    },
    {
      "constant": true,
      "inputs": [],
      "name": "refundSafe",
      "outputs": [
        {
          "name": "",
          "type": "address"
        }
      ],
      "payable": false,
      "stateMutability": "view",
      "type": "function"
    },
    {
      "constant": true,
      "inputs": [],
      "name": "totalRaised",
      "outputs": [
        {
          "name": "",
          "type": "uint256"
        }
      ],
      "payable": false,
      "stateMutability": "view",
      "type": "function"
    },
    {
      "constant": true,
      "inputs": [],
      "name": "individualMinCap",
      "outputs": [
        {
          "name": "",
          "type": "uint256"
        }
      ],
      "payable": false,
      "stateMutability": "view",
      "type": "function"
    },
    {
      "constant": false,
      "inputs": [
        {
          "name": "_conversionRate",
          "type": "uint256"
        }
      ],
      "name": "setConversionRate",
      "outputs": [],
      "payable": false,
      "stateMutability": "nonpayable",
      "type": "function"
    },
    {
      "constant": true,
      "inputs": [],
      "name": "newOwner",
      "outputs": [
        {
          "name": "",
          "type": "address"
        }
      ],
      "payable": false,
      "stateMutability": "view",
      "type": "function"
    },
    {
      "constant": false,
      "inputs": [
        {
          "name": "_individualMinCap",
          "type": "uint256"
        }
      ],
      "name": "setIndividualMinCap",
      "outputs": [],
      "payable": false,
      "stateMutability": "nonpayable",
      "type": "function"
    },
    {
      "constant": true,
      "inputs": [],
      "name": "hasEnded",
      "outputs": [
        {
          "name": "",
          "type": "bool"
        }
      ],
      "payable": false,
      "stateMutability": "view",
      "type": "function"
    },
    {
      "constant": false,
      "inputs": [
        {
          "name": "_newOwner",
          "type": "address"
        }
      ],
      "name": "transferOwnership",
      "outputs": [],
      "payable": false,
      "stateMutability": "nonpayable",
      "type": "function"
    },
    {
      "constant": true,
      "inputs": [],
      "name": "individualMaxCap",
      "outputs": [
        {
          "name": "",
          "type": "uint256"
        }
      ],
      "payable": false,
      "stateMutability": "view",
      "type": "function"
    },
    {
      "constant": true,
      "inputs": [],
      "name": "hardCap",
      "outputs": [
        {
          "name": "",
          "type": "uint256"
        }
      ],
      "payable": false,
      "stateMutability": "view",
      "type": "function"
    },
    {
      "constant": true,
      "inputs": [],
      "name": "token",
      "outputs": [
        {
          "name": "",
          "type": "address"
        }
      ],
      "payable": false,
      "stateMutability": "view",
      "type": "function"
    },
    {
      "inputs": [],
      "payable": false,
      "stateMutability": "nonpayable",
      "type": "constructor"
    },
    {
      "payable": true,
      "stateMutability": "payable",
      "type": "fallback"
    },
    {
      "anonymous": false,
      "inputs": [
        {
          "indexed": false,
          "name": "gasPriceLimit",
          "type": "uint256"
        }
      ],
      "name": "GasPriceLimitChanged",
      "type": "event"
    },
    {
      "anonymous": false,
      "inputs": [],
      "name": "Finalized",
      "type": "event"
    },
    {
      "anonymous": false,
      "inputs": [
        {
          "indexed": false,
          "name": "_individualMinCap",
          "type": "uint256"
        }
      ],
      "name": "IndividualMinCapChanged",
      "type": "event"
    },
    {
      "anonymous": false,
      "inputs": [
        {
          "indexed": false,
          "name": "_individualMaxCapTokens",
          "type": "uint256"
        }
      ],
      "name": "IndividualMaxCapTokensChanged",
      "type": "event"
    },
    {
      "anonymous": false,
      "inputs": [
        {
          "indexed": false,
          "name": "_conversionRate",
          "type": "uint256"
        }
      ],
      "name": "ConversionRateChanged",
      "type": "event"
    },
    {
      "anonymous": false,
      "inputs": [
        {
          "indexed": true,
          "name": "_address",
          "type": "address"
        },
        {
          "indexed": false,
          "name": "_ethers",
          "type": "uint256"
        },
        {
          "indexed": false,
          "name": "_tokens",
          "type": "uint256"
        }
      ],
      "name": "FundsReceived",
      "type": "event"
    },
    {
      "anonymous": false,
      "inputs": [
        {
          "indexed": true,
          "name": "_oldOwner",
          "type": "address"
        },
        {
          "indexed": true,
          "name": "_newOwner",
          "type": "address"
        }
      ],
      "name": "OwnershipTransfer",
      "type": "event"
    },
    {
      "constant": true,
      "inputs": [],
      "name": "getConversionRate",
      "outputs": [
        {
          "name": "",
          "type": "uint256"
        }
      ],
      "payable": false,
      "stateMutability": "view",
      "type": "function"
    }
  ],
  "bytecode": "0x60806040526011805460ff191690553480156200001b57600080fd5b5060008054600160a060020a0319163317905530620000396200037f565b600160a060020a03909116815260405190819003602001906000f08015801562000067573d6000803e3d6000fd5b5060028054600160a060020a031916600160a060020a039283161790819055166200009162000390565b600160a060020a03909116815260405190819003602001906000f080158015620000bf573d6000803e3d6000fd5b5060158054600160a060020a031916600160a060020a039283161790819055600254604080517f40c10f1900000000000000000000000000000000000000000000000000000000815292841660048401526a25391ee35a05c54d0000006024840152519216916340c10f199160448082019260009290919082900301818387803b1580156200014d57600080fd5b505af115801562000162573d6000803e3d6000fd5b50505050620001a1635c3eba50635c776a94610bb873b9f32508a8476640458ab2960f9bdc3e556fed5362000241640100000000026401000000009004565b620001bf6703782dace9d900006000640100000000620002a3810204565b620001d46000640100000000620002b7810204565b620002006a06342fd08f00f637800000635c2af3d0635c3d6894611770640100000000620002bc810204565b6200021e6907695a92c20d6fe00000640100000000620002ec810204565b6200023b68bdbc41e0348b300000640100000000620002ff810204565b620003b2565b838310156200024f57600080fd5b600082116200025d57600080fd5b600160a060020a03811615156200027357600080fd5b60039390935560049190915560065560058054600160a060020a031916600160a060020a03909216919091179055565b600d91909155600e81905560065402600f55565b601455565b82821015620002ca57600080fd5b60008111620002d857600080fd5b600993909355600a91909155600b55600c55565b60008111620002fa57600080fd5b601055565b600081116200030d57600080fd5b6005543090600160a060020a031662000325620003a1565b600160a060020a03928316815291166020820152604080519182900301906000f08015801562000359573d6000803e3d6000fd5b5060138054600160a060020a031916600160a060020a0392909216919091179055601255565b604051610b2b806200148f83390190565b6040516104278062001fba83390190565b60405161073880620023e183390190565b6110cd80620003c26000396000f30060806040526004361061019d5763ffffffff60e060020a60003504166308fc299b81146101a95780631c31f710146101d05780631c4fda10146101f15780631fe00a1514610222578063249b7c19146102375780632b9edee91461024c5780633197cbb61461027557806338af3eed1461028a5780634bb278f31461029f578063514b13f2146102b45780636007c836146102c957806365c13fdb146102e157806378e97925146102f957806379ba50971461030e5780637ffdf53e146103235780638d4e4083146103385780638da5cb5b1461034d578063906a26e014610362578063961a929c14610377578063a82524b21461038c578063b2d5ae44146103a1578063b3a196e9146103b6578063c27b1ed9146103cb578063c4264738146103e0578063c5c4744c146103f5578063d1614df31461040a578063d2e804941461041f578063d4ee1d9014610437578063daae717c1461044c578063ecb70fb714610464578063f2fde38b14610479578063f36089ec1461049a578063f5a30cee146104af578063fb86a404146104c4578063fc0c546a146104d9575b6101a733346104ee565b005b3480156101b557600080fd5b506101be610582565b60408051918252519081900360200190f35b3480156101dc57600080fd5b506101a7600160a060020a0360043516610588565b3480156101fd57600080fd5b5061020661062a565b60408051600160a060020a039092168252519081900360200190f35b34801561022e57600080fd5b506101be610639565b34801561024357600080fd5b506101be61063f565b34801561025857600080fd5b50610261610645565b604080519115158252519081900360200190f35b34801561028157600080fd5b506101be610651565b34801561029657600080fd5b50610206610657565b3480156102ab57600080fd5b506101a7610666565b3480156102c057600080fd5b506101be6106e0565b3480156102d557600080fd5b506101a76004356106e6565b3480156102ed57600080fd5b506101a7600435610741565b34801561030557600080fd5b506101be610793565b34801561031a57600080fd5b506101a7610799565b34801561032f57600080fd5b506101be61081e565b34801561034457600080fd5b50610261610824565b34801561035957600080fd5b5061020661082d565b34801561036e57600080fd5b506101be61083c565b34801561038357600080fd5b506101be610842565b34801561039857600080fd5b506101be610848565b3480156103ad57600080fd5b506101a761084e565b3480156103c257600080fd5b506101be6108f0565b3480156103d757600080fd5b506101be6108f6565b3480156103ec57600080fd5b506102066108fb565b34801561040157600080fd5b506101be61090a565b34801561041657600080fd5b506101be610910565b34801561042b57600080fd5b506101a7600435610916565b34801561044357600080fd5b50610206610984565b34801561045857600080fd5b506101a7600435610993565b34801561047057600080fd5b506102616109e5565b34801561048557600080fd5b506101a7600160a060020a0360043516610a03565b3480156104a657600080fd5b506101be610a49565b3480156104bb57600080fd5b506101be610ad5565b3480156104d057600080fd5b506101be610adb565b3480156104e557600080fd5b50610206610ae1565b60006104f8610af0565b61050182610b16565b90506000811161051057600080fd5b600754610523908363ffffffff610b2c16565b6007556105308382610b42565b61053a8383610c0e565b60408051348152602081018390528151600160a060020a038616927f363f315f930a17d1266b86a20d6dd34b1cfbc5a9db9f13a65d06a689c3a2af8a928290030190a2505050565b60095481565b600054600160a060020a0316331461059f57600080fd5b6105a881610c95565b601354604080517f1c31f710000000000000000000000000000000000000000000000000000000008152600160a060020a03848116600483015291519190921691631c31f71091602480830192600092919082900301818387803b15801561060f57600080fd5b505af1158015610623573d6000803e3d6000fd5b5050505050565b601554600160a060020a031681565b600f5481565b600b5481565b60125460075410155b90565b60045481565b600554600160a060020a031681565b600054600160a060020a0316331461067d57600080fd5b60115460ff161561068d57600080fd5b6106956109e5565b15156106a057600080fd5b6106a8610cf0565b6040517f6823b073d48d6e3a7d385eeb601452d680e74bb46afe3255a7d778f3a9b1768190600090a16011805460ff19166001179055565b600c5481565b600054600160a060020a031633146106fd57600080fd5b600e8190556006548102600f81905560408051918252517f57abf0427b16049a4b4f5234cd901a0f14c02268a8cf9f578b65440d54382ddb9181900360200190a150565b600054600160a060020a0316331461075857600080fd5b60148190556040805182815290517f7eccbaf3b6433d499add1a7b8d2301ddca1ce7148e27e05e7c3a10321aba70199181900360200190a150565b60035481565b600154600160a060020a031633146107b057600080fd5b60015460008054604051600160a060020a0393841693909116917f22500af037c600dd7b720644ab6e358635085601d9ac508ad83eb2d6b2d729ca91a36001546000805473ffffffffffffffffffffffffffffffffffffffff1916600160a060020a03909216919091179055565b60065481565b60115460ff1681565b600054600160a060020a031681565b60125481565b60145481565b600a5481565b60115460ff16151561085f57600080fd5b610867610645565b1561087157600080fd5b601354604080517ffa89401a0000000000000000000000000000000000000000000000000000000081523360048201529051600160a060020a039092169163fa89401a9160248082019260009290919082900301818387803b1580156108d657600080fd5b505af11580156108ea573d6000803e3d6000fd5b50505050565b60085481565b606490565b601354600160a060020a031681565b60075481565b600d5481565b600054600160a060020a0316331461092d57600080fd5b61093681610d4b565b600e54151561094457610981565b600e548102600f81905560408051918252517f57abf0427b16049a4b4f5234cd901a0f14c02268a8cf9f578b65440d54382ddb9181900360200190a15b50565b600154600160a060020a031681565b600054600160a060020a031633146109aa57600080fd5b600d8190556040805182815290517f9dc25dd899b96b9c01242eee4610b805084a873af7614e24f0fd3206cacd93329181900360200190a150565b60006109ef610daa565b806109fe575060105460075410155b905090565b600054600160a060020a03163314610a1a57600080fd5b6001805473ffffffffffffffffffffffffffffffffffffffff1916600160a060020a0392909216919091179055565b600080610a54610db3565b9050635c3eba504210158015610a6d5750635c47f49442105b15610a9b57610a946064610a8883609663ffffffff610dce16565b9063ffffffff610df216565b9150610ad1565b635c4946504210158015610ab25750635c5bbb1442105b15610acd57610a946064610a8883608263ffffffff610dce16565b8091505b5090565b600e5481565b60105481565b600254600160a060020a031681565b6014541580610b0157506014543a11155b1515610b0c57600080fd5b610b14610e09565b565b6000610b266064610a8884610e21565b92915050565b600082820183811015610b3b57fe5b9392505050565b600f541580610bf55750600f54600254604080517f70a08231000000000000000000000000000000000000000000000000000000008152600160a060020a0386811660048301529151610bf293869316916370a082319160248083019260209291908290030181600087803b158015610bba57600080fd5b505af1158015610bce573d6000803e3d6000fd5b505050506040513d6020811015610be457600080fd5b50519063ffffffff610b2c16565b11155b1515610c0057600080fd5b610c0a8282610e3b565b5050565b601354604080517ff340fa01000000000000000000000000000000000000000000000000000000008152600160a060020a0385811660048301529151919092169163f340fa0191849160248082019260009290919082900301818588803b158015610c7857600080fd5b505af1158015610c8c573d6000803e3d6000fd5b50505050505050565b600054600160a060020a03163314610cac57600080fd5b600160a060020a0381161515610cc157600080fd5b6005805473ffffffffffffffffffffffffffffffffffffffff1916600160a060020a0392909216919091179055565b610cf8610e78565b600260009054906101000a9004600160a060020a0316600160a060020a0316637e5cd5c16040518163ffffffff1660e060020a028152600401600060405180830381600087803b1580156108d657600080fd5b600054600160a060020a03163314610d6257600080fd5b60008111610d6f57600080fd5b60068190556040805182815290517fb6e78d5c7115b12c1603fb3c8926acd812db2d83d01f62004c460b33f62a88649181900360200190a150565b60045442101590565b60006109fe6064610dc2610f50565b9063ffffffff610dce16565b6000828202831580610dea5750828482811515610de757fe5b04145b1515610b3b57fe5b6000808284811515610e0057fe5b04949350505050565b610e11610f70565b60105460075410610b1457600080fd5b6000610b26610e2e610a49565b839063ffffffff610dce16565b610e43610f87565b15610e6e57600854610e5b908263ffffffff610b2c16565b60088190556009541015610e6e57600080fd5b610c0a8282610f9f565b610e80611029565b610e88610645565b15610efd57601360009054906101000a9004600160a060020a0316600160a060020a03166343d726d66040518163ffffffff1660e060020a028152600401600060405180830381600087803b158015610ee057600080fd5b505af1158015610ef4573d6000803e3d6000fd5b50505050610b14565b601360009054906101000a9004600160a060020a0316600160a060020a03166359c656df6040518163ffffffff1660e060020a028152600401600060405180830381600087803b1580156108d657600080fd5b6000610f5a610f87565b15610f685750600c5461064e565b6109fe611063565b610f78611069565b600d54341015610b1457600080fd5b6000600b54421080156109fe575050600a5442101590565b600254604080517f40c10f19000000000000000000000000000000000000000000000000000000008152600160a060020a03858116600483015260248201859052915191909216916340c10f1991604480830192600092919082900301818387803b15801561100d57600080fd5b505af1158015611021573d6000803e3d6000fd5b505050505050565b600554604051600160a060020a0390911690303180156108fc02916000818181858888f19350505050158015610981573d6000803e3d6000fd5b60065490565b34151561107557600080fd5b6003544210158015611088575060045442105b806110965750611096610f87565b1515610b1457600080fd00a165627a7a7230582082d09b6e7a869ea9035c0adbe7e8dd578abbeebf981e5211e67b79c97cd5f0d4002960806040526006805460a060020a60ff021916905534801561002057600080fd5b50604051602080610b2b83398101604081815291518282018352600d82527f457373656e636520546f6b656e0000000000000000000000000000000000000060208084019182528451808601909552600385527f5845530000000000000000000000000000000000000000000000000000000000908501528251919384939290916012916100b091600191610101565b5081516100c4906002906020850190610101565b506003805460ff191660ff92909216919091179055505060068054600160a060020a031916600160a060020a03929092169190911790555061019c565b828054600181600116156101000203166002900490600052602060002090601f016020900481019282601f1061014257805160ff191683800117855561016f565b8280016001018555821561016f579182015b8281111561016f578251825591602001919060010190610154565b5061017b92915061017f565b5090565b61019991905b8082111561017b5760008155600101610185565b90565b610980806101ab6000396000f3006080604052600436106100cf5763ffffffff7c010000000000000000000000000000000000000000000000000000000060003504166306fdde0381146100d4578063075461721461015e578063095ea7b31461018f57806318160ddd146101c757806321afb5ee146101ee57806323b872dd14610203578063313ce5671461022d57806340c10f191461025857806342966c681461027e57806370a08231146102965780637e5cd5c1146102b757806395d89b41146102cc578063a9059cbb146102e1578063dd62ed3e14610305575b600080fd5b3480156100e057600080fd5b506100e961032c565b6040805160208082528351818301528351919283929083019185019080838360005b8381101561012357818101518382015260200161010b565b50505050905090810190601f1680156101505780820380516001836020036101000a031916815260200191505b509250505060405180910390f35b34801561016a57600080fd5b506101736103b9565b60408051600160a060020a039092168252519081900360200190f35b34801561019b57600080fd5b506101b3600160a060020a03600435166024356103c8565b604080519115158252519081900360200190f35b3480156101d357600080fd5b506101dc61042e565b60408051918252519081900360200190f35b3480156101fa57600080fd5b506101b3610434565b34801561020f57600080fd5b506101b3600160a060020a0360043581169060243516604435610455565b34801561023957600080fd5b506102426104f2565b6040805160ff9092168252519081900360200190f35b34801561026457600080fd5b5061027c600160a060020a03600435166024356104fb565b005b34801561028a57600080fd5b5061027c6004356105d0565b3480156102a257600080fd5b506101dc600160a060020a03600435166106d8565b3480156102c357600080fd5b5061027c6106f3565b3480156102d857600080fd5b506100e9610792565b3480156102ed57600080fd5b506101b3600160a060020a03600435166024356107ea565b34801561031157600080fd5b506101dc600160a060020a0360043581169060243516610800565b60018054604080516020600284861615610100026000190190941693909304601f810184900484028201840190925281815292918301828280156103b15780601f10610386576101008083540402835291602001916103b1565b820191906000526020600020905b81548152906001019060200180831161039457829003601f168201915b505050505081565b600654600160a060020a031681565b336000818152600560209081526040808320600160a060020a038716808552908352818420869055815186815291519394909390927f8c5be1e5ebec7d5bd14f71427d1e84f3dd0314c0f7b2291e5b200ac8c7c3b925928290030190a350600192915050565b60005481565b60065474010000000000000000000000000000000000000000900460ff1681565b600160a060020a038316600090815260056020908152604080832033845290915281205482111561048557600080fd5b600160a060020a03841660009081526005602090815260408083203384529091529020546104b9908363ffffffff61082b16565b600160a060020a03851660009081526005602090815260408083203384529091529020556104e884848461083d565b5060019392505050565b60035460ff1681565b600654600160a060020a0316331461051257600080fd5b60065474010000000000000000000000000000000000000000900460ff161561053a57600080fd5b60005461054d908263ffffffff61093e16565b6000908155600160a060020a038316815260046020526040902054610578908263ffffffff61093e16565b600160a060020a03831660008181526004602090815260408083209490945583518581529351929391927fddf252ad1be2c89b69c2b068fc378daa952ba7f163c4a11628f55a4df523b3ef9281900390910190a35050565b60008115156105de57600080fd5b50336000818152600460205260409020548211156105fb57600080fd5b600160a060020a038116600090815260046020526040902054610624908363ffffffff61082b16565b600160a060020a03821660009081526004602052604081209190915554610651908363ffffffff61082b16565b600055604080518381529051600160a060020a038316917fcc16f5dbb4873280815c1ee09dbd06736cffcc184412cf7a71a0fdb75d397ca5919081900360200190a2604080518381529051600091600160a060020a038416917fddf252ad1be2c89b69c2b068fc378daa952ba7f163c4a11628f55a4df523b3ef9181900360200190a35050565b600160a060020a031660009081526004602052604090205490565b600654600160a060020a0316331461070a57600080fd5b60065474010000000000000000000000000000000000000000900460ff161561073257600080fd5b6006805474ff00000000000000000000000000000000000000001916740100000000000000000000000000000000000000001790556040517faf79b4370f6af9d950564bbe6b81f7f0834c003c455db9248f4e55e6bf865eb790600090a1565b6002805460408051602060018416156101000260001901909316849004601f810184900484028201840190925281815292918301828280156103b15780601f10610386576101008083540402835291602001916103b1565b60006107f733848461083d565b50600192915050565b600160a060020a03918216600090815260056020908152604080832093909416825291909152205490565b60008282111561083757fe5b50900390565b600160a060020a038216151561085257600080fd5b80158015906108795750600160a060020a0383166000908152600460205260409020548111155b151561088457600080fd5b600160a060020a0383166000908152600460205260409020546108ad908263ffffffff61082b16565b600160a060020a0380851660009081526004602052604080822093909355908416815220546108e2908263ffffffff61093e16565b600160a060020a0380841660008181526004602090815260409182902094909455805185815290519193928716927fddf252ad1be2c89b69c2b068fc378daa952ba7f163c4a11628f55a4df523b3ef92918290030190a3505050565b60008282018381101561094d57fe5b93925050505600a165627a7a723058207b9ad272b30280344a428572bf94058967ea3fdd8e02dcc8fc8515d9848d77c70029608060405234801561001057600080fd5b50604051602080610427833981016040525160008054600160a060020a031916600160a060020a0383161790556100556001635e0c27506401000000006100db810204565b610089600173c36cdfeb909f9aa993fa553e4f880623c1583bd26a129c8f71ad02e2a6800000640100000000610100810204565b6100a16002635c78bc506401000000006100db810204565b6100d5600273992f21bee809f1ee7e67c0225185b29b04485b2e6a129c8f71ad02e2a6800000640100000000610100810204565b5061019b565b60008082116100e957600080fd5b5060ff909116600090815260016020526040902055565b60ff83166000908152600160209081526040808320600160a060020a03861684526002810190925290912054610143908364010000000061023b61018582021704565b600160a060020a0384166000908152600283016020526040902055600181015461017a908364010000000061023b61018582021704565b600190910155505050565b60008282018381101561019457fe5b9392505050565b61027d806101aa6000396000f30060806040526004361061004b5763ffffffff7c0100000000000000000000000000000000000000000000000000000000600035041663587fae938114610050578063e6587a8614610086575b600080fd5b34801561005c57600080fd5b5061008460ff6004351673ffffffffffffffffffffffffffffffffffffffff602435166100ba565b005b34801561009257600080fd5b506100a160ff60043516610210565b6040805192835260208301919091528051918290030190f35b60ff8216600090815260016020526040812080549091904210156100dd57600080fd5b5073ffffffffffffffffffffffffffffffffffffffff8216600090815260028201602052604081205490811161011257600080fd5b73ffffffffffffffffffffffffffffffffffffffff83166000908152600283016020526040812055600182015461014f908263ffffffff61022916565b600183015560008054604080517fa9059cbb00000000000000000000000000000000000000000000000000000000815273ffffffffffffffffffffffffffffffffffffffff8781166004830152602482018690529151919092169263a9059cbb92604480820193602093909283900390910190829087803b1580156101d357600080fd5b505af11580156101e7573d6000803e3d6000fd5b505050506040513d60208110156101fd57600080fd5b5051151561020a57600080fd5b50505050565b6001602081905260009182526040909120805491015482565b60008282111561023557fe5b50900390565b60008282018381101561024a57fe5b93925050505600a165627a7a72305820e41341a3ec639969c6120c1c679f999d0211bcb7b0bec269c5267948e4013c1f0029608060405234801561001057600080fd5b5060405160408061073883398101604052805160209091015160008054600160a060020a031916600160a060020a03808516919091179091558116151561005657600080fd5b60038054600160a060020a031916600160a060020a03929092169190911760a060020a60ff0219169055506106a8806100906000396000f3006080604052600436106100b95763ffffffff7c01000000000000000000000000000000000000000000000000000000006000350416631c31f71081146100be57806338af3eed146100e157806343d726d61461011257806359c656df1461012757806379ba50971461013c5780638da5cb5b14610151578063c19d93fb14610166578063d4ee1d901461019f578063f2fde38b146101b4578063f340fa01146101d5578063fa89401a146101e9578063fc7e286d1461020a575b600080fd5b3480156100ca57600080fd5b506100df600160a060020a036004351661023d565b005b3480156100ed57600080fd5b506100f6610298565b60408051600160a060020a039092168252519081900360200190f35b34801561011e57600080fd5b506100df6102a7565b34801561013357600080fd5b506100df61037d565b34801561014857600080fd5b506100df610407565b34801561015d57600080fd5b506100f661048c565b34801561017257600080fd5b5061017b61049b565b6040518082600281111561018b57fe5b60ff16815260200191505060405180910390f35b3480156101ab57600080fd5b506100f66104ab565b3480156101c057600080fd5b506100df600160a060020a03600435166104ba565b6100df600160a060020a0360043516610500565b3480156101f557600080fd5b506100df600160a060020a0360043516610580565b34801561021657600080fd5b5061022b600160a060020a0360043516610654565b60408051918252519081900360200190f35b600054600160a060020a0316331461025457600080fd5b600160a060020a038116151561026957600080fd5b6003805473ffffffffffffffffffffffffffffffffffffffff1916600160a060020a0392909216919091179055565b600354600160a060020a031681565b600054600160a060020a031633146102be57600080fd5b600060035460a060020a900460ff1660028111156102d857fe5b146102e257600080fd5b6003805474ff00000000000000000000000000000000000000001916740200000000000000000000000000000000000000001790556040517f088672c3a6e342f7cd94a65ba63b79df24a8973927b4d05d803c44bbf787d12f90600090a1600354604051600160a060020a0390911690303180156108fc02916000818181858888f1935050505015801561037a573d6000803e3d6000fd5b50565b600054600160a060020a0316331461039457600080fd5b600060035460a060020a900460ff1660028111156103ae57fe5b146103b857600080fd5b6003805474ff0000000000000000000000000000000000000000191660a060020a1790556040517f94ecd7b823a8ac3135e076f17b83ae633f0e44fbce83145686e29f20a722ed3990600090a1565b600154600160a060020a0316331461041e57600080fd5b60015460008054604051600160a060020a0393841693909116917f22500af037c600dd7b720644ab6e358635085601d9ac508ad83eb2d6b2d729ca91a36001546000805473ffffffffffffffffffffffffffffffffffffffff1916600160a060020a03909216919091179055565b600054600160a060020a031681565b60035460a060020a900460ff1681565b600154600160a060020a031681565b600054600160a060020a031633146104d157600080fd5b6001805473ffffffffffffffffffffffffffffffffffffffff1916600160a060020a0392909216919091179055565b600054600160a060020a0316331461051757600080fd5b600060035460a060020a900460ff16600281111561053157fe5b1461053b57600080fd5b600160a060020a038116600090815260026020526040902054610564903463ffffffff61066616565b600160a060020a03909116600090815260026020526040902055565b6000600160035460a060020a900460ff16600281111561059c57fe5b146105a657600080fd5b50600160a060020a0381166000908152600260205260409020548015156105cc57600080fd5b600160a060020a0382166000818152600260205260408082208290555183156108fc0291849190818181858888f19350505050158015610610573d6000803e3d6000fd5b50604080518281529051600160a060020a038416917fc77b936abfe9f7a0b660115162ddb07bb0484e4f2bb1aa9229d9d0bd13636afe919081900360200190a25050565b60026020526000908152604090205481565b60008282018381101561067557fe5b93925050505600a165627a7a7230582047c9cde3d9f159413da72c47d29ccc84b9d5db4706aea049aca6b499a492cf910029",
  "source": "pragma solidity ^0.4.21;\n\nimport \"./component/TokenSafe.sol\";\nimport \"./token/MintableToken.sol\";\nimport \"./token/BurnableToken.sol\";\nimport \"./fundraiser/MintableTokenFundraiser.sol\";\nimport \"./fundraiser/IndividualCapsFundraiser.sol\";\nimport \"./fundraiser/GasPriceLimitFundraiser.sol\";\nimport \"./fundraiser/CappedFundraiser.sol\";\nimport \"./fundraiser/RefundableFundraiser.sol\";\nimport \"./fundraiser/PresaleFundraiser.sol\";\nimport \"./fundraiser/TieredFundraiser.sol\";\n\n\n/**\n * @title EssenceToken\n */\n\ncontract EssenceToken is MintableToken, BurnableToken {\n    constructor(address _minter)\n        StandardToken(\n            \"Essence Token\",   // Token name\n            \"XES\", // Token symbol\n            18  // Token decimals\n        )\n        \n        MintableToken(_minter)\n        public\n    {\n    }\n}\n\n\n\n/**\n * @title EssenceTokenSafe\n */\n\ncontract EssenceTokenSafe is TokenSafe {\n  constructor(address _token)\n    TokenSafe(_token)\n    public\n  {\n    \n    // Group \"Core Team \"\n    init(\n      1, // Group Id\n      1577854800 // Release date = 2020-01-01 05:00 UTC\n    );\n    add(\n      1, // Group Id\n      0xc36CDfEB909f9AA993Fa553e4f880623C1583bD2,  // Token Safe Entry Address\n      22500000000000000000000000  // Allocated tokens\n    );\n    \n    // Group \"The Essence Foundation \"\n    init(\n      2, // Group Id\n      1551416400 // Release date = 2019-03-01 05:00 UTC\n    );\n    add(\n      2, // Group Id\n      0x992f21Bee809F1eE7e67C0225185B29B04485b2e,  // Token Safe Entry Address\n      22500000000000000000000000  // Allocated tokens\n    );\n  }\n}\n\n\n\n/**\n * @title EssenceTokenFundraiser\n */\n\ncontract EssenceTokenFundraiser is MintableTokenFundraiser, PresaleFundraiser, IndividualCapsFundraiser, CappedFundraiser, RefundableFundraiser, TieredFundraiser, GasPriceLimitFundraiser {\n    EssenceTokenSafe public tokenSafe;\n\n    constructor()\n        HasOwner(msg.sender)\n        public\n    {\n        token = new EssenceToken(\n        \n        address(this)  // The fundraiser is the minter\n        );\n\n        tokenSafe = new EssenceTokenSafe(token);\n        MintableToken(token).mint(address(tokenSafe), 45000000000000000000000000);\n\n        initializeBasicFundraiser(\n            1547614800, // Start date = 2019-01-16 05:00 UTC\n            1551329940,  // End date = 2019-02-28 04:59 UTC\n            3000, // Conversion rate = 3000 XES per 1 ether\n            0xB9f32508a8476640458ab2960f9BDc3E556fED53     // Beneficiary\n        );\n\n        initializeIndividualCapsFundraiser(\n            (0.25 ether), // Minimum contribution\n            (0 ether)  // Maximum individual cap\n        );\n\n        initializeGasPriceLimitFundraiser(\n            0 // Gas price limit in wei\n        );\n\n        initializePresaleFundraiser(\n            7500000000000000000000000,\n            1546318800, // Start = 2019-01-01 05:00 UTC\n            1547528340,   // End = 2019-01-15 04:59 UTC\n            6000\n        );\n\n        initializeCappedFundraiser(\n            (35000 ether) // Hard cap\n        );\n\n        initializeRefundableFundraiser(\n            (3500 ether)  // Soft cap\n        );\n\n        \n    }\n    \n    /**\n      * @dev Define conversion rates based on the tier start and end date\n      */\n    function getConversionRate() public view returns (uint256) {\n        uint256 rate = super.getConversionRate();\n        if (now >= 1547614800 && now < 1548219540)\n            return rate.mul(150).div(100);\n        \n        if (now >= 1548306000 && now < 1549515540)\n            return rate.mul(130).div(100);\n        \n\n        return rate;\n    }\n\n    /**\n      * @dev Disable minting upon finalization\n      */\n    function finalization() internal {\n        super.finalization();\n        MintableToken(token).disableMinting();\n    }\n}\n\n",
  "sourcePath": "/tmp/tg-build-DFPcbO/contracts/Fundraiser.sol",
  "compiler": {
    "name": "solc",
    "version": "0.4.24+commit.e67f0147.Emscripten.clang"
  },
  "schemaVersion": "2.0.1",
  "updatedAt": "2018-12-13T06:56:18.536Z"
}