{
  "contractName": "EssenceToken",
  "abi": [
    {
      "constant": true,
      "inputs": [],
      "name": "name",
      "outputs": [
        {
          "name": "",
          "type": "string"
        }
      ],
      "payable": false,
      "stateMutability": "view",
      "type": "function"
    },
    {
      "constant": true,
      "inputs": [],
      "name": "minter",
      "outputs": [
        {
          "name": "",
          "type": "address"
        }
      ],
      "payable": false,
      "stateMutability": "view",
      "type": "function"
    },
    {
      "constant": false,
      "inputs": [
        {
          "name": "_spender",
          "type": "address"
        },
        {
          "name": "_value",
          "type": "uint256"
        }
      ],
      "name": "approve",
      "outputs": [
        {
          "name": "",
          "type": "bool"
        }
      ],
      "payable": false,
      "stateMutability": "nonpayable",
      "type": "function"
    },
    {
      "constant": true,
      "inputs": [],
      "name": "totalSupply",
      "outputs": [
        {
          "name": "",
          "type": "uint256"
        }
      ],
      "payable": false,
      "stateMutability": "view",
      "type": "function"
    },
    {
      "constant": true,
      "inputs": [],
      "name": "mintingDisabled",
      "outputs": [
        {
          "name": "",
          "type": "bool"
        }
      ],
      "payable": false,
      "stateMutability": "view",
      "type": "function"
    },
    {
      "constant": false,
      "inputs": [
        {
          "name": "_from",
          "type": "address"
        },
        {
          "name": "_to",
          "type": "address"
        },
        {
          "name": "_value",
          "type": "uint256"
        }
      ],
      "name": "transferFrom",
      "outputs": [
        {
          "name": "",
          "type": "bool"
        }
      ],
      "payable": false,
      "stateMutability": "nonpayable",
      "type": "function"
    },
    {
      "constant": true,
      "inputs": [],
      "name": "decimals",
      "outputs": [
        {
          "name": "",
          "type": "uint8"
        }
      ],
      "payable": false,
      "stateMutability": "view",
      "type": "function"
    },
    {
      "constant": false,
      "inputs": [
        {
          "name": "_to",
          "type": "address"
        },
        {
          "name": "_value",
          "type": "uint256"
        }
      ],
      "name": "mint",
      "outputs": [],
      "payable": false,
      "stateMutability": "nonpayable",
      "type": "function"
    },
    {
      "constant": false,
      "inputs": [
        {
          "name": "_value",
          "type": "uint256"
        }
      ],
      "name": "burn",
      "outputs": [],
      "payable": false,
      "stateMutability": "nonpayable",
      "type": "function"
    },
    {
      "constant": true,
      "inputs": [
        {
          "name": "_address",
          "type": "address"
        }
      ],
      "name": "balanceOf",
      "outputs": [
        {
          "name": "balance",
          "type": "uint256"
        }
      ],
      "payable": false,
      "stateMutability": "view",
      "type": "function"
    },
    {
      "constant": false,
      "inputs": [],
      "name": "disableMinting",
      "outputs": [],
      "payable": false,
      "stateMutability": "nonpayable",
      "type": "function"
    },
    {
      "constant": true,
      "inputs": [],
      "name": "symbol",
      "outputs": [
        {
          "name": "",
          "type": "string"
        }
      ],
      "payable": false,
      "stateMutability": "view",
      "type": "function"
    },
    {
      "constant": false,
      "inputs": [
        {
          "name": "_to",
          "type": "address"
        },
        {
          "name": "_value",
          "type": "uint256"
        }
      ],
      "name": "transfer",
      "outputs": [
        {
          "name": "",
          "type": "bool"
        }
      ],
      "payable": false,
      "stateMutability": "nonpayable",
      "type": "function"
    },
    {
      "constant": true,
      "inputs": [
        {
          "name": "_owner",
          "type": "address"
        },
        {
          "name": "_spender",
          "type": "address"
        }
      ],
      "name": "allowance",
      "outputs": [
        {
          "name": "remaining",
          "type": "uint256"
        }
      ],
      "payable": false,
      "stateMutability": "view",
      "type": "function"
    },
    {
      "inputs": [
        {
          "name": "_minter",
          "type": "address"
        }
      ],
      "payable": false,
      "stateMutability": "nonpayable",
      "type": "constructor"
    },
    {
      "anonymous": false,
      "inputs": [
        {
          "indexed": true,
          "name": "_from",
          "type": "address"
        },
        {
          "indexed": false,
          "name": "_value",
          "type": "uint256"
        }
      ],
      "name": "Burn",
      "type": "event"
    },
    {
      "anonymous": false,
      "inputs": [],
      "name": "MintingDisabled",
      "type": "event"
    },
    {
      "anonymous": false,
      "inputs": [
        {
          "indexed": true,
          "name": "_from",
          "type": "address"
        },
        {
          "indexed": true,
          "name": "_to",
          "type": "address"
        },
        {
          "indexed": false,
          "name": "_value",
          "type": "uint256"
        }
      ],
      "name": "Transfer",
      "type": "event"
    },
    {
      "anonymous": false,
      "inputs": [
        {
          "indexed": true,
          "name": "_owner",
          "type": "address"
        },
        {
          "indexed": true,
          "name": "_spender",
          "type": "address"
        },
        {
          "indexed": false,
          "name": "_value",
          "type": "uint256"
        }
      ],
      "name": "Approval",
      "type": "event"
    }
  ],
  "bytecode": "0x60806040526006805460a060020a60ff021916905534801561002057600080fd5b50604051602080610b2b83398101604081815291518282018352600d82527f457373656e636520546f6b656e0000000000000000000000000000000000000060208084019182528451808601909552600385527f5845530000000000000000000000000000000000000000000000000000000000908501528251919384939290916012916100b091600191610101565b5081516100c4906002906020850190610101565b506003805460ff191660ff92909216919091179055505060068054600160a060020a031916600160a060020a03929092169190911790555061019c565b828054600181600116156101000203166002900490600052602060002090601f016020900481019282601f1061014257805160ff191683800117855561016f565b8280016001018555821561016f579182015b8281111561016f578251825591602001919060010190610154565b5061017b92915061017f565b5090565b61019991905b8082111561017b5760008155600101610185565b90565b610980806101ab6000396000f3006080604052600436106100cf5763ffffffff7c010000000000000000000000000000000000000000000000000000000060003504166306fdde0381146100d4578063075461721461015e578063095ea7b31461018f57806318160ddd146101c757806321afb5ee146101ee57806323b872dd14610203578063313ce5671461022d57806340c10f191461025857806342966c681461027e57806370a08231146102965780637e5cd5c1146102b757806395d89b41146102cc578063a9059cbb146102e1578063dd62ed3e14610305575b600080fd5b3480156100e057600080fd5b506100e961032c565b6040805160208082528351818301528351919283929083019185019080838360005b8381101561012357818101518382015260200161010b565b50505050905090810190601f1680156101505780820380516001836020036101000a031916815260200191505b509250505060405180910390f35b34801561016a57600080fd5b506101736103b9565b60408051600160a060020a039092168252519081900360200190f35b34801561019b57600080fd5b506101b3600160a060020a03600435166024356103c8565b604080519115158252519081900360200190f35b3480156101d357600080fd5b506101dc61042e565b60408051918252519081900360200190f35b3480156101fa57600080fd5b506101b3610434565b34801561020f57600080fd5b506101b3600160a060020a0360043581169060243516604435610455565b34801561023957600080fd5b506102426104f2565b6040805160ff9092168252519081900360200190f35b34801561026457600080fd5b5061027c600160a060020a03600435166024356104fb565b005b34801561028a57600080fd5b5061027c6004356105d0565b3480156102a257600080fd5b506101dc600160a060020a03600435166106d8565b3480156102c357600080fd5b5061027c6106f3565b3480156102d857600080fd5b506100e9610792565b3480156102ed57600080fd5b506101b3600160a060020a03600435166024356107ea565b34801561031157600080fd5b506101dc600160a060020a0360043581169060243516610800565b60018054604080516020600284861615610100026000190190941693909304601f810184900484028201840190925281815292918301828280156103b15780601f10610386576101008083540402835291602001916103b1565b820191906000526020600020905b81548152906001019060200180831161039457829003601f168201915b505050505081565b600654600160a060020a031681565b336000818152600560209081526040808320600160a060020a038716808552908352818420869055815186815291519394909390927f8c5be1e5ebec7d5bd14f71427d1e84f3dd0314c0f7b2291e5b200ac8c7c3b925928290030190a350600192915050565b60005481565b60065474010000000000000000000000000000000000000000900460ff1681565b600160a060020a038316600090815260056020908152604080832033845290915281205482111561048557600080fd5b600160a060020a03841660009081526005602090815260408083203384529091529020546104b9908363ffffffff61082b16565b600160a060020a03851660009081526005602090815260408083203384529091529020556104e884848461083d565b5060019392505050565b60035460ff1681565b600654600160a060020a0316331461051257600080fd5b60065474010000000000000000000000000000000000000000900460ff161561053a57600080fd5b60005461054d908263ffffffff61093e16565b6000908155600160a060020a038316815260046020526040902054610578908263ffffffff61093e16565b600160a060020a03831660008181526004602090815260408083209490945583518581529351929391927fddf252ad1be2c89b69c2b068fc378daa952ba7f163c4a11628f55a4df523b3ef9281900390910190a35050565b60008115156105de57600080fd5b50336000818152600460205260409020548211156105fb57600080fd5b600160a060020a038116600090815260046020526040902054610624908363ffffffff61082b16565b600160a060020a03821660009081526004602052604081209190915554610651908363ffffffff61082b16565b600055604080518381529051600160a060020a038316917fcc16f5dbb4873280815c1ee09dbd06736cffcc184412cf7a71a0fdb75d397ca5919081900360200190a2604080518381529051600091600160a060020a038416917fddf252ad1be2c89b69c2b068fc378daa952ba7f163c4a11628f55a4df523b3ef9181900360200190a35050565b600160a060020a031660009081526004602052604090205490565b600654600160a060020a0316331461070a57600080fd5b60065474010000000000000000000000000000000000000000900460ff161561073257600080fd5b6006805474ff00000000000000000000000000000000000000001916740100000000000000000000000000000000000000001790556040517faf79b4370f6af9d950564bbe6b81f7f0834c003c455db9248f4e55e6bf865eb790600090a1565b6002805460408051602060018416156101000260001901909316849004601f810184900484028201840190925281815292918301828280156103b15780601f10610386576101008083540402835291602001916103b1565b60006107f733848461083d565b50600192915050565b600160a060020a03918216600090815260056020908152604080832093909416825291909152205490565b60008282111561083757fe5b50900390565b600160a060020a038216151561085257600080fd5b80158015906108795750600160a060020a0383166000908152600460205260409020548111155b151561088457600080fd5b600160a060020a0383166000908152600460205260409020546108ad908263ffffffff61082b16565b600160a060020a0380851660009081526004602052604080822093909355908416815220546108e2908263ffffffff61093e16565b600160a060020a0380841660008181526004602090815260409182902094909455805185815290519193928716927fddf252ad1be2c89b69c2b068fc378daa952ba7f163c4a11628f55a4df523b3ef92918290030190a3505050565b60008282018381101561094d57fe5b93925050505600a165627a7a723058207b9ad272b30280344a428572bf94058967ea3fdd8e02dcc8fc8515d9848d77c70029",
  "source": "pragma solidity ^0.4.21;\n\nimport \"./component/TokenSafe.sol\";\nimport \"./token/MintableToken.sol\";\nimport \"./token/BurnableToken.sol\";\nimport \"./fundraiser/MintableTokenFundraiser.sol\";\nimport \"./fundraiser/IndividualCapsFundraiser.sol\";\nimport \"./fundraiser/GasPriceLimitFundraiser.sol\";\nimport \"./fundraiser/CappedFundraiser.sol\";\nimport \"./fundraiser/RefundableFundraiser.sol\";\nimport \"./fundraiser/PresaleFundraiser.sol\";\nimport \"./fundraiser/TieredFundraiser.sol\";\n\n\n/**\n * @title EssenceToken\n */\n\ncontract EssenceToken is MintableToken, BurnableToken {\n    constructor(address _minter)\n        StandardToken(\n            \"Essence Token\",   // Token name\n            \"XES\", // Token symbol\n            18  // Token decimals\n        )\n        \n        MintableToken(_minter)\n        public\n    {\n    }\n}\n\n\n\n/**\n * @title EssenceTokenSafe\n */\n\ncontract EssenceTokenSafe is TokenSafe {\n  constructor(address _token)\n    TokenSafe(_token)\n    public\n  {\n    \n    // Group \"Core Team \"\n    init(\n      1, // Group Id\n      1577854800 // Release date = 2020-01-01 05:00 UTC\n    );\n    add(\n      1, // Group Id\n      0xc36CDfEB909f9AA993Fa553e4f880623C1583bD2,  // Token Safe Entry Address\n      22500000000000000000000000  // Allocated tokens\n    );\n    \n    // Group \"The Essence Foundation \"\n    init(\n      2, // Group Id\n      1551416400 // Release date = 2019-03-01 05:00 UTC\n    );\n    add(\n      2, // Group Id\n      0x992f21Bee809F1eE7e67C0225185B29B04485b2e,  // Token Safe Entry Address\n      22500000000000000000000000  // Allocated tokens\n    );\n  }\n}\n\n\n\n/**\n * @title EssenceTokenFundraiser\n */\n\ncontract EssenceTokenFundraiser is MintableTokenFundraiser, PresaleFundraiser, IndividualCapsFundraiser, CappedFundraiser, RefundableFundraiser, TieredFundraiser, GasPriceLimitFundraiser {\n    EssenceTokenSafe public tokenSafe;\n\n    constructor()\n        HasOwner(msg.sender)\n        public\n    {\n        token = new EssenceToken(\n        \n        address(this)  // The fundraiser is the minter\n        );\n\n        tokenSafe = new EssenceTokenSafe(token);\n        MintableToken(token).mint(address(tokenSafe), 45000000000000000000000000);\n\n        initializeBasicFundraiser(\n            1547614800, // Start date = 2019-01-16 05:00 UTC\n            1551329940,  // End date = 2019-02-28 04:59 UTC\n            3000, // Conversion rate = 3000 XES per 1 ether\n            0xB9f32508a8476640458ab2960f9BDc3E556fED53     // Beneficiary\n        );\n\n        initializeIndividualCapsFundraiser(\n            (0.25 ether), // Minimum contribution\n            (0 ether)  // Maximum individual cap\n        );\n\n        initializeGasPriceLimitFundraiser(\n            0 // Gas price limit in wei\n        );\n\n        initializePresaleFundraiser(\n            7500000000000000000000000,\n            1546318800, // Start = 2019-01-01 05:00 UTC\n            1547528340,   // End = 2019-01-15 04:59 UTC\n            6000\n        );\n\n        initializeCappedFundraiser(\n            (35000 ether) // Hard cap\n        );\n\n        initializeRefundableFundraiser(\n            (3500 ether)  // Soft cap\n        );\n\n        \n    }\n    \n    /**\n      * @dev Define conversion rates based on the tier start and end date\n      */\n    function getConversionRate() public view returns (uint256) {\n        uint256 rate = super.getConversionRate();\n        if (now >= 1547614800 && now < 1548219540)\n            return rate.mul(150).div(100);\n        \n        if (now >= 1548306000 && now < 1549515540)\n            return rate.mul(130).div(100);\n        \n\n        return rate;\n    }\n\n    /**\n      * @dev Disable minting upon finalization\n      */\n    function finalization() internal {\n        super.finalization();\n        MintableToken(token).disableMinting();\n    }\n}\n\n",
  "sourcePath": "/tmp/tg-build-DFPcbO/contracts/Fundraiser.sol",
  "compiler": {
    "name": "solc",
    "version": "0.4.24+commit.e67f0147.Emscripten.clang"
  },
  "schemaVersion": "2.0.1",
  "updatedAt": "2018-12-13T06:56:18.534Z"
}