{
  "contractName": "RefundSafe",
  "abi": [
    {
      "constant": true,
      "inputs": [],
      "name": "beneficiary",
      "outputs": [
        {
          "name": "",
          "type": "address"
        }
      ],
      "payable": false,
      "stateMutability": "view",
      "type": "function"
    },
    {
      "constant": false,
      "inputs": [],
      "name": "acceptOwnership",
      "outputs": [],
      "payable": false,
      "stateMutability": "nonpayable",
      "type": "function"
    },
    {
      "constant": true,
      "inputs": [],
      "name": "owner",
      "outputs": [
        {
          "name": "",
          "type": "address"
        }
      ],
      "payable": false,
      "stateMutability": "view",
      "type": "function"
    },
    {
      "constant": true,
      "inputs": [],
      "name": "state",
      "outputs": [
        {
          "name": "",
          "type": "uint8"
        }
      ],
      "payable": false,
      "stateMutability": "view",
      "type": "function"
    },
    {
      "constant": true,
      "inputs": [],
      "name": "newOwner",
      "outputs": [
        {
          "name": "",
          "type": "address"
        }
      ],
      "payable": false,
      "stateMutability": "view",
      "type": "function"
    },
    {
      "constant": false,
      "inputs": [
        {
          "name": "_newOwner",
          "type": "address"
        }
      ],
      "name": "transferOwnership",
      "outputs": [],
      "payable": false,
      "stateMutability": "nonpayable",
      "type": "function"
    },
    {
      "constant": true,
      "inputs": [
        {
          "name": "",
          "type": "address"
        }
      ],
      "name": "deposits",
      "outputs": [
        {
          "name": "",
          "type": "uint256"
        }
      ],
      "payable": false,
      "stateMutability": "view",
      "type": "function"
    },
    {
      "inputs": [
        {
          "name": "_owner",
          "type": "address"
        },
        {
          "name": "_beneficiary",
          "type": "address"
        }
      ],
      "payable": false,
      "stateMutability": "nonpayable",
      "type": "constructor"
    },
    {
      "anonymous": false,
      "inputs": [],
      "name": "RefundsClosed",
      "type": "event"
    },
    {
      "anonymous": false,
      "inputs": [],
      "name": "RefundsAllowed",
      "type": "event"
    },
    {
      "anonymous": false,
      "inputs": [
        {
          "indexed": true,
          "name": "_address",
          "type": "address"
        },
        {
          "indexed": false,
          "name": "_value",
          "type": "uint256"
        }
      ],
      "name": "RefundSuccessful",
      "type": "event"
    },
    {
      "anonymous": false,
      "inputs": [
        {
          "indexed": true,
          "name": "_oldOwner",
          "type": "address"
        },
        {
          "indexed": true,
          "name": "_newOwner",
          "type": "address"
        }
      ],
      "name": "OwnershipTransfer",
      "type": "event"
    },
    {
      "constant": false,
      "inputs": [
        {
          "name": "_beneficiary",
          "type": "address"
        }
      ],
      "name": "setBeneficiary",
      "outputs": [],
      "payable": false,
      "stateMutability": "nonpayable",
      "type": "function"
    },
    {
      "constant": false,
      "inputs": [
        {
          "name": "_address",
          "type": "address"
        }
      ],
      "name": "deposit",
      "outputs": [],
      "payable": true,
      "stateMutability": "payable",
      "type": "function"
    },
    {
      "constant": false,
      "inputs": [],
      "name": "close",
      "outputs": [],
      "payable": false,
      "stateMutability": "nonpayable",
      "type": "function"
    },
    {
      "constant": false,
      "inputs": [],
      "name": "allowRefunds",
      "outputs": [],
      "payable": false,
      "stateMutability": "nonpayable",
      "type": "function"
    },
    {
      "constant": false,
      "inputs": [
        {
          "name": "_address",
          "type": "address"
        }
      ],
      "name": "refund",
      "outputs": [],
      "payable": false,
      "stateMutability": "nonpayable",
      "type": "function"
    }
  ],
  "bytecode": "0x608060405234801561001057600080fd5b5060405160408061073883398101604052805160209091015160008054600160a060020a031916600160a060020a03808516919091179091558116151561005657600080fd5b60038054600160a060020a031916600160a060020a03929092169190911760a060020a60ff0219169055506106a8806100906000396000f3006080604052600436106100b95763ffffffff7c01000000000000000000000000000000000000000000000000000000006000350416631c31f71081146100be57806338af3eed146100e157806343d726d61461011257806359c656df1461012757806379ba50971461013c5780638da5cb5b14610151578063c19d93fb14610166578063d4ee1d901461019f578063f2fde38b146101b4578063f340fa01146101d5578063fa89401a146101e9578063fc7e286d1461020a575b600080fd5b3480156100ca57600080fd5b506100df600160a060020a036004351661023d565b005b3480156100ed57600080fd5b506100f6610298565b60408051600160a060020a039092168252519081900360200190f35b34801561011e57600080fd5b506100df6102a7565b34801561013357600080fd5b506100df61037d565b34801561014857600080fd5b506100df610407565b34801561015d57600080fd5b506100f661048c565b34801561017257600080fd5b5061017b61049b565b6040518082600281111561018b57fe5b60ff16815260200191505060405180910390f35b3480156101ab57600080fd5b506100f66104ab565b3480156101c057600080fd5b506100df600160a060020a03600435166104ba565b6100df600160a060020a0360043516610500565b3480156101f557600080fd5b506100df600160a060020a0360043516610580565b34801561021657600080fd5b5061022b600160a060020a0360043516610654565b60408051918252519081900360200190f35b600054600160a060020a0316331461025457600080fd5b600160a060020a038116151561026957600080fd5b6003805473ffffffffffffffffffffffffffffffffffffffff1916600160a060020a0392909216919091179055565b600354600160a060020a031681565b600054600160a060020a031633146102be57600080fd5b600060035460a060020a900460ff1660028111156102d857fe5b146102e257600080fd5b6003805474ff00000000000000000000000000000000000000001916740200000000000000000000000000000000000000001790556040517f088672c3a6e342f7cd94a65ba63b79df24a8973927b4d05d803c44bbf787d12f90600090a1600354604051600160a060020a0390911690303180156108fc02916000818181858888f1935050505015801561037a573d6000803e3d6000fd5b50565b600054600160a060020a0316331461039457600080fd5b600060035460a060020a900460ff1660028111156103ae57fe5b146103b857600080fd5b6003805474ff0000000000000000000000000000000000000000191660a060020a1790556040517f94ecd7b823a8ac3135e076f17b83ae633f0e44fbce83145686e29f20a722ed3990600090a1565b600154600160a060020a0316331461041e57600080fd5b60015460008054604051600160a060020a0393841693909116917f22500af037c600dd7b720644ab6e358635085601d9ac508ad83eb2d6b2d729ca91a36001546000805473ffffffffffffffffffffffffffffffffffffffff1916600160a060020a03909216919091179055565b600054600160a060020a031681565b60035460a060020a900460ff1681565b600154600160a060020a031681565b600054600160a060020a031633146104d157600080fd5b6001805473ffffffffffffffffffffffffffffffffffffffff1916600160a060020a0392909216919091179055565b600054600160a060020a0316331461051757600080fd5b600060035460a060020a900460ff16600281111561053157fe5b1461053b57600080fd5b600160a060020a038116600090815260026020526040902054610564903463ffffffff61066616565b600160a060020a03909116600090815260026020526040902055565b6000600160035460a060020a900460ff16600281111561059c57fe5b146105a657600080fd5b50600160a060020a0381166000908152600260205260409020548015156105cc57600080fd5b600160a060020a0382166000818152600260205260408082208290555183156108fc0291849190818181858888f19350505050158015610610573d6000803e3d6000fd5b50604080518281529051600160a060020a038416917fc77b936abfe9f7a0b660115162ddb07bb0484e4f2bb1aa9229d9d0bd13636afe919081900360200190a25050565b60026020526000908152604090205481565b60008282018381101561067557fe5b93925050505600a165627a7a7230582047c9cde3d9f159413da72c47d29ccc84b9d5db4706aea049aca6b499a492cf910029",
  "source": "pragma solidity ^0.4.21;\n\nimport \"../library/SafeMath.sol\";\nimport \"../trait/HasOwner.sol\";\n\n/**\n * @title Refund Safe\n *\n * @dev Allows your fundraiser to offer refunds if soft cap is not reached \n * while the fundraiser is active.\n */\ncontract RefundSafe is HasOwner {\n    using SafeMath for uint256;\n\n    /// The state of the refund safe.\n    /// ACTIVE    - the default state while the fundraiser is active.\n    /// REFUNDING - the refund safe allows participants in the fundraiser to get refunds.\n    /// CLOSED    - the refund safe is closed for business.\n    enum State {ACTIVE, REFUNDING, CLOSED}\n\n    /// Holds all ETH deposits of participants in the fundraiser.\n    mapping(address => uint256) public deposits;\n\n    /// The address which will receive the funds if the fundraiser is successful.\n    address public beneficiary;\n\n    /// The state variable which will control the lifecycle of the refund safe.\n    State public state;\n\n    /**\n     * @dev Event fired when the refund safe is closed.\n     */\n    event RefundsClosed();\n\n    /**\n     * @dev Event fired when refunds are allowed.\n     */\n    event RefundsAllowed();\n\n    /**\n     * @dev Event fired when a participant in the fundraiser is successfully refunded.\n     *\n     * @param _address The address of the participant.\n     * @param _value The number of ETH which were refunded.\n     */\n    event RefundSuccessful(address indexed _address, uint256 _value);\n\n    /**\n     * @dev Constructor.\n     *\n     * @param _beneficiary The address which will receive the funds if the fundraiser is a success.\n     */\n    constructor(address _owner, address _beneficiary)\n        HasOwner(_owner)\n        public\n    {\n        require(_beneficiary != 0x0);\n\n        beneficiary = _beneficiary;\n        state = State.ACTIVE;\n    }\n\n    /**\n     * @dev Sets The beneficiary address.\n     *\n     * @param _beneficiary The address of the beneficiary.\n     */\n    function setBeneficiary(address _beneficiary) public onlyOwner {\n        require(_beneficiary != address(0));\n\n        beneficiary = _beneficiary;\n    }\n\n    /**\n     * @dev Deposits ETH into the refund safe.\n     *\n     * @param _address The address of the participant in the fundraiser.\n     */\n    function deposit(address _address) onlyOwner public payable {\n        require(state == State.ACTIVE);\n\n        deposits[_address] = deposits[_address].plus(msg.value);\n    }\n\n    /**\n     * @dev Closes the refund safe.\n     */\n    function close() onlyOwner public {\n        require(state == State.ACTIVE);\n\n        state = State.CLOSED;\n\n        emit RefundsClosed();\n\n        beneficiary.transfer(address(this).balance);\n    }\n\n    /**\n     * @dev Moves the refund safe into a state of refund.\n     */\n    function allowRefunds() onlyOwner public {\n        require(state == State.ACTIVE);\n\n        state = State.REFUNDING;\n\n        emit RefundsAllowed();\n    }\n\n    /**\n     * @dev Refunds a participant in the fundraiser.\n     *\n     * @param _address The address of the participant.\n     */\n    function refund(address _address) public {\n        require(state == State.REFUNDING);\n\n        uint256 amount = deposits[_address];\n        // We do not want to emit RefundSuccessful events for empty accounts with zero ether\n        require(amount != 0);\n        // Zeroing the deposit early prevents reentrancy issues\n        deposits[_address] = 0;\n        _address.transfer(amount);\n\n        emit RefundSuccessful(_address, amount);\n    }\n}\n",
  "sourcePath": "/tmp/tg-build-DFPcbO/contracts/component/RefundSafe.sol",
  "compiler": {
    "name": "solc",
    "version": "0.4.24+commit.e67f0147.Emscripten.clang"
  },
  "schemaVersion": "2.0.1",
  "updatedAt": "2018-12-13T06:56:18.539Z"
}