{
  "contractName": "StandardMintableToken",
  "abi": [
    {
      "constant": true,
      "inputs": [],
      "name": "name",
      "outputs": [
        {
          "name": "",
          "type": "string"
        }
      ],
      "payable": false,
      "stateMutability": "view",
      "type": "function"
    },
    {
      "constant": true,
      "inputs": [],
      "name": "minter",
      "outputs": [
        {
          "name": "",
          "type": "address"
        }
      ],
      "payable": false,
      "stateMutability": "view",
      "type": "function"
    },
    {
      "constant": false,
      "inputs": [
        {
          "name": "_spender",
          "type": "address"
        },
        {
          "name": "_value",
          "type": "uint256"
        }
      ],
      "name": "approve",
      "outputs": [
        {
          "name": "",
          "type": "bool"
        }
      ],
      "payable": false,
      "stateMutability": "nonpayable",
      "type": "function"
    },
    {
      "constant": true,
      "inputs": [],
      "name": "totalSupply",
      "outputs": [
        {
          "name": "",
          "type": "uint256"
        }
      ],
      "payable": false,
      "stateMutability": "view",
      "type": "function"
    },
    {
      "constant": true,
      "inputs": [],
      "name": "mintingDisabled",
      "outputs": [
        {
          "name": "",
          "type": "bool"
        }
      ],
      "payable": false,
      "stateMutability": "view",
      "type": "function"
    },
    {
      "constant": false,
      "inputs": [
        {
          "name": "_from",
          "type": "address"
        },
        {
          "name": "_to",
          "type": "address"
        },
        {
          "name": "_value",
          "type": "uint256"
        }
      ],
      "name": "transferFrom",
      "outputs": [
        {
          "name": "",
          "type": "bool"
        }
      ],
      "payable": false,
      "stateMutability": "nonpayable",
      "type": "function"
    },
    {
      "constant": true,
      "inputs": [],
      "name": "decimals",
      "outputs": [
        {
          "name": "",
          "type": "uint8"
        }
      ],
      "payable": false,
      "stateMutability": "view",
      "type": "function"
    },
    {
      "constant": false,
      "inputs": [
        {
          "name": "_to",
          "type": "address"
        },
        {
          "name": "_value",
          "type": "uint256"
        }
      ],
      "name": "mint",
      "outputs": [],
      "payable": false,
      "stateMutability": "nonpayable",
      "type": "function"
    },
    {
      "constant": true,
      "inputs": [
        {
          "name": "_address",
          "type": "address"
        }
      ],
      "name": "balanceOf",
      "outputs": [
        {
          "name": "balance",
          "type": "uint256"
        }
      ],
      "payable": false,
      "stateMutability": "view",
      "type": "function"
    },
    {
      "constant": false,
      "inputs": [],
      "name": "disableMinting",
      "outputs": [],
      "payable": false,
      "stateMutability": "nonpayable",
      "type": "function"
    },
    {
      "constant": true,
      "inputs": [],
      "name": "symbol",
      "outputs": [
        {
          "name": "",
          "type": "string"
        }
      ],
      "payable": false,
      "stateMutability": "view",
      "type": "function"
    },
    {
      "constant": false,
      "inputs": [
        {
          "name": "_to",
          "type": "address"
        },
        {
          "name": "_value",
          "type": "uint256"
        }
      ],
      "name": "transfer",
      "outputs": [
        {
          "name": "",
          "type": "bool"
        }
      ],
      "payable": false,
      "stateMutability": "nonpayable",
      "type": "function"
    },
    {
      "constant": true,
      "inputs": [
        {
          "name": "_owner",
          "type": "address"
        },
        {
          "name": "_spender",
          "type": "address"
        }
      ],
      "name": "allowance",
      "outputs": [
        {
          "name": "remaining",
          "type": "uint256"
        }
      ],
      "payable": false,
      "stateMutability": "view",
      "type": "function"
    },
    {
      "inputs": [
        {
          "name": "_minter",
          "type": "address"
        },
        {
          "name": "_name",
          "type": "string"
        },
        {
          "name": "_symbol",
          "type": "string"
        },
        {
          "name": "_decimals",
          "type": "uint8"
        }
      ],
      "payable": false,
      "stateMutability": "nonpayable",
      "type": "constructor"
    },
    {
      "anonymous": false,
      "inputs": [],
      "name": "MintingDisabled",
      "type": "event"
    },
    {
      "anonymous": false,
      "inputs": [
        {
          "indexed": true,
          "name": "_from",
          "type": "address"
        },
        {
          "indexed": true,
          "name": "_to",
          "type": "address"
        },
        {
          "indexed": false,
          "name": "_value",
          "type": "uint256"
        }
      ],
      "name": "Transfer",
      "type": "event"
    },
    {
      "anonymous": false,
      "inputs": [
        {
          "indexed": true,
          "name": "_owner",
          "type": "address"
        },
        {
          "indexed": true,
          "name": "_spender",
          "type": "address"
        },
        {
          "indexed": false,
          "name": "_value",
          "type": "uint256"
        }
      ],
      "name": "Approval",
      "type": "event"
    }
  ],
  "bytecode": "0x60806040526006805460a060020a60ff021916905534801561002057600080fd5b506040516109c03803806109c083398101604090815281516020808401519284015160608501519385018051939590949101929091859185918591859161006c916001918601906100c1565b5081516100809060029060208501906100c1565b506003805460ff191660ff92909216919091179055505060068054600160a060020a031916600160a060020a03929092169190911790555061015c92505050565b828054600181600116156101000203166002900490600052602060002090601f016020900481019282601f1061010257805160ff191683800117855561012f565b8280016001018555821561012f579182015b8281111561012f578251825591602001919060010190610114565b5061013b92915061013f565b5090565b61015991905b8082111561013b5760008155600101610145565b90565b6108558061016b6000396000f3006080604052600436106100c45763ffffffff7c010000000000000000000000000000000000000000000000000000000060003504166306fdde0381146100c95780630754617214610153578063095ea7b31461018457806318160ddd146101bc57806321afb5ee146101e357806323b872dd146101f8578063313ce5671461022257806340c10f191461024d57806370a08231146102735780637e5cd5c11461029457806395d89b41146102a9578063a9059cbb146102be578063dd62ed3e146102e2575b600080fd5b3480156100d557600080fd5b506100de610309565b6040805160208082528351818301528351919283929083019185019080838360005b83811015610118578181015183820152602001610100565b50505050905090810190601f1680156101455780820380516001836020036101000a031916815260200191505b509250505060405180910390f35b34801561015f57600080fd5b50610168610396565b60408051600160a060020a039092168252519081900360200190f35b34801561019057600080fd5b506101a8600160a060020a03600435166024356103a5565b604080519115158252519081900360200190f35b3480156101c857600080fd5b506101d161040b565b60408051918252519081900360200190f35b3480156101ef57600080fd5b506101a8610411565b34801561020457600080fd5b506101a8600160a060020a0360043581169060243516604435610432565b34801561022e57600080fd5b506102376104cf565b6040805160ff9092168252519081900360200190f35b34801561025957600080fd5b50610271600160a060020a03600435166024356104d8565b005b34801561027f57600080fd5b506101d1600160a060020a03600435166105ad565b3480156102a057600080fd5b506102716105c8565b3480156102b557600080fd5b506100de610667565b3480156102ca57600080fd5b506101a8600160a060020a03600435166024356106bf565b3480156102ee57600080fd5b506101d1600160a060020a03600435811690602435166106d5565b60018054604080516020600284861615610100026000190190941693909304601f8101849004840282018401909252818152929183018282801561038e5780601f106103635761010080835404028352916020019161038e565b820191906000526020600020905b81548152906001019060200180831161037157829003601f168201915b505050505081565b600654600160a060020a031681565b336000818152600560209081526040808320600160a060020a038716808552908352818420869055815186815291519394909390927f8c5be1e5ebec7d5bd14f71427d1e84f3dd0314c0f7b2291e5b200ac8c7c3b925928290030190a350600192915050565b60005481565b60065474010000000000000000000000000000000000000000900460ff1681565b600160a060020a038316600090815260056020908152604080832033845290915281205482111561046257600080fd5b600160a060020a0384166000908152600560209081526040808320338452909152902054610496908363ffffffff61070016565b600160a060020a03851660009081526005602090815260408083203384529091529020556104c5848484610712565b5060019392505050565b60035460ff1681565b600654600160a060020a031633146104ef57600080fd5b60065474010000000000000000000000000000000000000000900460ff161561051757600080fd5b60005461052a908263ffffffff61081316565b6000908155600160a060020a038316815260046020526040902054610555908263ffffffff61081316565b600160a060020a03831660008181526004602090815260408083209490945583518581529351929391927fddf252ad1be2c89b69c2b068fc378daa952ba7f163c4a11628f55a4df523b3ef9281900390910190a35050565b600160a060020a031660009081526004602052604090205490565b600654600160a060020a031633146105df57600080fd5b60065474010000000000000000000000000000000000000000900460ff161561060757600080fd5b6006805474ff00000000000000000000000000000000000000001916740100000000000000000000000000000000000000001790556040517faf79b4370f6af9d950564bbe6b81f7f0834c003c455db9248f4e55e6bf865eb790600090a1565b6002805460408051602060018416156101000260001901909316849004601f8101849004840282018401909252818152929183018282801561038e5780601f106103635761010080835404028352916020019161038e565b60006106cc338484610712565b50600192915050565b600160a060020a03918216600090815260056020908152604080832093909416825291909152205490565b60008282111561070c57fe5b50900390565b600160a060020a038216151561072757600080fd5b801580159061074e5750600160a060020a0383166000908152600460205260409020548111155b151561075957600080fd5b600160a060020a038316600090815260046020526040902054610782908263ffffffff61070016565b600160a060020a0380851660009081526004602052604080822093909355908416815220546107b7908263ffffffff61081316565b600160a060020a0380841660008181526004602090815260409182902094909455805185815290519193928716927fddf252ad1be2c89b69c2b068fc378daa952ba7f163c4a11628f55a4df523b3ef92918290030190a3505050565b60008282018381101561082257fe5b93925050505600a165627a7a723058204e849500652180ad41c8a70bd04b0da72d8794be520cb33eac7dba7c3ad9612d0029",
  "source": "pragma solidity ^0.4.21;\n\nimport \"./MintableToken.sol\";\n\ncontract StandardMintableToken is MintableToken {\n    constructor(address _minter, string _name, string _symbol, uint8 _decimals)\n        StandardToken(_name, _symbol, _decimals)\n        MintableToken(_minter)\n        public\n    {\n    }\n}\n",
  "sourcePath": "/tmp/tg-build-DFPcbO/contracts/token/StandardMintableToken.sol",
  "compiler": {
    "name": "solc",
    "version": "0.4.24+commit.e67f0147.Emscripten.clang"
  },
  "schemaVersion": "2.0.1",
  "updatedAt": "2018-12-13T06:56:18.550Z"
}