{
  "contractName": "TokenSafe",
  "abi": [
    {
      "constant": true,
      "inputs": [
        {
          "name": "",
          "type": "uint8"
        }
      ],
      "name": "groups",
      "outputs": [
        {
          "name": "releaseTimestamp",
          "type": "uint256"
        },
        {
          "name": "remaining",
          "type": "uint256"
        }
      ],
      "payable": false,
      "stateMutability": "view",
      "type": "function"
    },
    {
      "inputs": [
        {
          "name": "_token",
          "type": "address"
        }
      ],
      "payable": false,
      "stateMutability": "nonpayable",
      "type": "constructor"
    },
    {
      "constant": false,
      "inputs": [
        {
          "name": "_id",
          "type": "uint8"
        },
        {
          "name": "_account",
          "type": "address"
        }
      ],
      "name": "release",
      "outputs": [],
      "payable": false,
      "stateMutability": "nonpayable",
      "type": "function"
    }
  ],
  "bytecode": "0x608060405234801561001057600080fd5b506040516020806102b9833981016040525160008054600160a060020a03909216600160a060020a0319909216919091179055610267806100526000396000f30060806040526004361061004b5763ffffffff7c0100000000000000000000000000000000000000000000000000000000600035041663587fae938114610050578063e6587a8614610086575b600080fd5b34801561005c57600080fd5b5061008460ff6004351673ffffffffffffffffffffffffffffffffffffffff602435166100ba565b005b34801561009257600080fd5b506100a160ff60043516610210565b6040805192835260208301919091528051918290030190f35b60ff8216600090815260016020526040812080549091904210156100dd57600080fd5b5073ffffffffffffffffffffffffffffffffffffffff8216600090815260028201602052604081205490811161011257600080fd5b73ffffffffffffffffffffffffffffffffffffffff83166000908152600283016020526040812055600182015461014f908263ffffffff61022916565b600183015560008054604080517fa9059cbb00000000000000000000000000000000000000000000000000000000815273ffffffffffffffffffffffffffffffffffffffff8781166004830152602482018690529151919092169263a9059cbb92604480820193602093909283900390910190829087803b1580156101d357600080fd5b505af11580156101e7573d6000803e3d6000fd5b505050506040513d60208110156101fd57600080fd5b5051151561020a57600080fd5b50505050565b6001602081905260009182526040909120805491015482565b60008282111561023557fe5b509003905600a165627a7a723058203ac65ea67c77872eec596038e762a1e4c81086c7d0dfd6170ce75449f62334d60029",
  "source": "pragma solidity ^0.4.21;\n\nimport \"../library/SafeMath.sol\";\nimport \"../token/ERC20Token.sol\";\n\n\n/**\n * @title TokenSafe\n *\n * @dev Abstract contract that serves as a base for the token safes. It is a multi-group token safe, where each group\n *      has it's own release time and multiple accounts with locked tokens.\n */\ncontract TokenSafe {\n    using SafeMath for uint;\n\n    // The ERC20 token contract.\n    ERC20Token token;\n\n    struct Group {\n        // The release date for the locked tokens\n        // Note: Unix timestamp fits in uint32, however block.timestamp is uint256\n        uint256 releaseTimestamp;\n        // The total remaining tokens in the group.\n        uint256 remaining;\n        // The individual account token balances in the group.\n        mapping (address => uint) balances;\n    }\n\n    // The groups of locked tokens\n    mapping (uint8 => Group) public groups;\n\n    /**\n     * @dev The constructor.\n     *\n     * @param _token The address of the Fabric Token (fundraiser) contract.\n     */\n    constructor(address _token) public {\n        token = ERC20Token(_token);\n    }\n\n    /**\n     * @dev The function initializes a group with a release date.\n     *\n     * @param _id Group identifying number.\n     * @param _releaseTimestamp Unix timestamp of the time after which the tokens can be released\n     */\n    function init(uint8 _id, uint _releaseTimestamp) internal {\n        require(_releaseTimestamp > 0);\n        \n        Group storage group = groups[_id];\n        group.releaseTimestamp = _releaseTimestamp;\n    }\n\n    /**\n     * @dev Add new account with locked token balance to the specified group id.\n     *\n     * @param _id Group identifying number.\n     * @param _account The address of the account to be added.\n     * @param _balance The number of tokens to be locked.\n     */\n    function add(uint8 _id, address _account, uint _balance) internal {\n        Group storage group = groups[_id];\n        group.balances[_account] = group.balances[_account].plus(_balance);\n        group.remaining = group.remaining.plus(_balance);\n    }\n\n    /**\n     * @dev Allows an account to be released if it meets the time constraints of the group.\n     *\n     * @param _id Group identifying number.\n     * @param _account The address of the account to be released.\n     */\n    function release(uint8 _id, address _account) public {\n        Group storage group = groups[_id];\n        require(now >= group.releaseTimestamp);\n        \n        uint tokens = group.balances[_account];\n        require(tokens > 0);\n        \n        group.balances[_account] = 0;\n        group.remaining = group.remaining.minus(tokens);\n        \n        if (!token.transfer(_account, tokens)) {\n            revert();\n        }\n    }\n}\n",
  "sourcePath": "/tmp/tg-build-DFPcbO/contracts/component/TokenSafe.sol",
  "compiler": {
    "name": "solc",
    "version": "0.4.24+commit.e67f0147.Emscripten.clang"
  },
  "schemaVersion": "2.0.1",
  "updatedAt": "2018-12-13T06:56:18.540Z"
}